:100000000C9434000C9451010C9446000C9446005E
:100010000C9446000C9446000C9447010C94460046
:100020000C9446000C9446000C9446000C94460038
:100030000C9446000C94D9000C9446000C94460095
:100040000C9446000C9446000C9446000C94460018
:100050000C9446000C9446000C9446000C94460008
:100060000C9446000C94460011241FBECFEFD4E040
:10007000DEBFCDBF21E0A0E0B1E001C01D92A930FC
:10008000B207E1F70E9475010C949F010C940000E7
:1000900040982D9821E2215061F097FF08C02B9ADB
:1000A0002D9A660F771F881F991F2D98F4CF2B98D4
:1000B000F7CF089529E080E0215041F02D9A93B1C7
:1000C00092959170880F892B2D98F6CF0895CF9235
:1000D000DF92EF92FF9260E070E080E093E00E9498
:1000E000480010920001109201011092020110923A
:1000F0000301C12CD12C76010E945A008F3F41F0A0
:10010000C0920001D0920101E0920201F09203013D
:100110008FEFC81AD80AE80AF80AC114D10482E09D
:10012000E806F10449F7409AFF90EF90DF90CF90F6
:10013000089560E070E080E093E00E9448008091C4
:10014000000190910101A0910201B09103018093FF
:10015000040190930501A0930601B093070108954F
:10016000CF9310926F00409A10928000C1E0C0932C
:1001700081008FEF80938500109284000E94990087
:100180008091040190910501A0910601B0910701B1
:10019000892B8A2B8B2B49F00E945A0080930801EF
:1001A000C0936F001DBACF91089510926F00409ACE
:1001B000FACF1F920F920FB60F9211242F938F93A5
:1001C0009F93AF93BF938CEF809385008AE98093D0
:1001D000840045984298429A419844984398449A9A
:1001E0004498449A4498439A449A4498449A449828
:1001F00099E09150C9F08091080187FF13C0439A9C
:10020000449A80910801880F8093080144982D9AA0
:1002100083B12091080182958170822B809308011F
:100220002D98E7CF4398ECCF4398449A4498449A4A
:100230004498449A4498449A4498419A809104017D
:1002400090910501A0910601B09107010197A109C4
:10025000B1098093040190930501A0930601B09326
:100260000701892B8A2B8B2B39F410926F00409A4F
:1002700083E08CBB81E08DBB459ABF91AF919F918C
:100280008F912F910F900FBE0F901F9018951F9276
:100290000F920FB60F9211240F900FBE0F901F9068
:1002A00018951F920F920FB60F9211242F933F9320
:1002B0004F935F936F937F938F939F93AF93BF936E
:1002C000EF93FF930E94B000FF91EF91BF91AF9128
:1002D0009F918F917F916F915F914F913F912F915E
:1002E0000F900FBE0F901F90189514BE15BE8FE390
:1002F00087B99BEF9AB99FE294B988B99FEF9BB9F0
:1003000085B9329BFECF82E08093690083E08CBB8D
:1003100081E08DBB83B7817F83BF83B7816083BF5B
:1003200088E1809360008FE4809360000E94670002
:10033000789487E48895A89580936000FBCFF89423
:02034000FFCFED
:00000001FF
