:100000000C9434000C9454010C9446000C9446005B
:100010000C9446000C9446000C944A010C94460043
:100020000C9446000C9446000C9446000C94460038
:100030000C9446000C94DC000C9446000C94460092
:100040000C9446000C9446000C9446000C94460018
:100050000C9446000C9446000C9446000C94460008
:100060000C9446000C94460011241FBECFEFD4E040
:10007000DEBFCDBF11E0A0E0B1E001C01D92A9300C
:10008000B107E1F70E9478010C94A6010C940000DE
:1000900040982D9820E20BC097FF02C02B9A01C018
:1000A0002B982D9A660F771F881F991F2D98215026
:1000B00098F7089580E098E007C02D9A880F21E016
:1000C0001C9B20E0822B2D989150B8F70895EF9259
:1000D000FF920F931F9360E070E080E093E00E9436
:1000E000480010920501109206011092070110922B
:1000F0000801EE24FF2487010E945A008F3F41F03F
:10010000E0920501F09206010093070110930801A7
:100110000894E11CF11C011D111D80E0E81680E02F
:10012000F80682E0080780E0180731F7409A1F912F
:100130000F91FF90EF90089560E070E080E093E011
:100140000E9448008091050190910601A09107014D
:10015000B09108018093010190930201A0930301E3
:10016000B09304010895CF9310926F00409A1092BB
:100170008000C1E0C09381008FEF809385001092D2
:1001800084000E949C008091010190910201A09145
:100190000301B09104010097A105B10541F00E944F
:1001A0005A0080930001C0936F001DBA03C01092E3
:1001B0006F00409ACF9108951F920F920FB60F9241
:1001C00011242F938F939F93AF93BF938CEF8093C2
:1001D00085008AE98093840045984298429A419824
:1001E00044984398449A4498449A4498439A449A29
:1001F0004498449A449888E018C09091000197FF71
:1002000002C0439A01C04398449A90910001990F0B
:100210009093000144982D9A2091000191E01C9B3D
:1002200090E0922B909300012D98815030F74398E5
:10023000449A4498449A4498449A4498449A4498D6
:10024000419A8091010190910201A0910301B09126
:1002500004010197A109B109809301019093020162
:10026000A0930301B09304010097A105B10539F4EF
:1002700010926F00409A83E08CBB81E08DBB459A61
:10028000BF91AF919F918F912F910F900FBE0F90C3
:100290001F9018951F920F920FB60F9211240F9076
:1002A0000FBE0F901F9018951F920F920FB60F92CE
:1002B00011242F933F934F935F936F937F938F936B
:1002C0009F93AF93BF93EF93FF930E94B300FF916F
:1002D000EF91BF91AF919F918F917F916F915F91BE
:1002E0004F913F912F910F900FBE0F901F90189537
:1002F00014BE15BE8FE387B99BEF9AB99FE294B9FC
:1003000088B99FEF9BB985B9329BFECF82E080937D
:10031000690083E08CBB81E08DBB83B7817F83BFA5
:1003200083B7816083BF80916000886180936000A3
:1003300088EE809360000E94670078948895A89565
:1003400080916000806480936000F8CFF894FFCFC4
:00000001FF
